S0030000FC
S1132400CE0008F620028620BA1009B71009592513
S113241002240A86EFB41009B71009200A8610BAFC
S11324201009B71009200086DFB41009B710090994
S113243026D439CE000886EFB41009B710098620D7
S1132440BA1009B7100986DFB41009B71009BD34F2
S1132450960926EA3986DFB41009B7100986EFB465
S11124601009B710098610BA1009B71009390F
S11330008600B720008600B72007BD245586D0B7B8
S11330102002BD2400BD344EB62008B72002BD24D2
S113302000BD344EBD245586D1B72002BD2400BD59
S10F3030344EBD2433BD344EBD34713920
S11334008600970F861BB72008CE2200FF39FEBD29
S11334103000FE39FEB62000A700BDFFBB8620BDEC
S1133420FFB808FF39FEB620084CB72008960F4CA9
S1133430970F800826D9BDFFC4BD372BBD3754BDB7
S11334403778BD379CBDFFC4BDFFC420B33F862081
S1133450BA1009B7100986EFB41009B710090101B1
S113346086DFB41009B710098620BA1009B710090D
S1133470398620BA1009B710098610BA1009B71096
S11334800986DFB41009B7100901010186EFB410F1
S113349009B71009393FB6100818CE0005441809B9
S10D34A026FBB6200049B7200039CE
S1133500B62204F6220649250224254688FFC8FF70
S1133510C30001CE000E02FD23028F83000188FF49
S1133520C8FFFD2600CC0014F32600FD224020171E
S113353049CE000E02FD23028FFD2600CC0014F3B9
S11335402600FD22402000FC2302CE0014038FFD40
S11335502602CC000EB32602FD2242FC2240FD22AC
S11335606039B62208F6220A49250224254688FF36
S1133570C8FFC30001CE000E02FD23028F830001A9
S113358088FFC8FFFD2600CC0014F32600FD22406E
S1133590201749CE000E02FD23028FFD2600CC0029
S11335A014F32600FD22402000FC2302CE00140365
S11335B08FFD2602CC000EB32602FD2242FC2240DF
S11335C0FD226039B6220CF6220E4925A024C346FA
S11335D088FFC8FFC30001CE000E02FD23028F83C3
S11335E0000188FFC8FFFD2600CC0014F32600FD6F
S11335F02240201749CE000E02FD23028FFD260033
S1133600CC0014F32600FD22402000FC2302CE004F
S113361014038FFD2602CC000EB32602FD2242FCC9
S11336202240FD226039B62200F6220288FFC8FF3C
S1133630C30001CE011802FD23028FFD2600CC0039
S113364052B32600FD2240FC2302CE0118038FFD55
S11336502602CC000EB32602FD2242492502242074
S113366046F62242860088FF8B01CE000A028FFDB7
S11336702600B62241C6643DB32600FD2260202008
S113368046F62242860088FF8B01CE000A028FFD97
S11336902600B62241C6643DF32600FD22602000C8
S10436A039EC
S1133700FC2260CE2710028FF729908FCE03E802A7
S11337108FF729918FCE0064028FF729928FCE0004
S11337200A028FF729938FF7299439BD3626BD37BE
S113373000B62991BDFFB5B62992BDFFB5862EBD51
S1133740FFB8B62993BDFFB5B62994BDFFB5867CF5
S1133750BDFFB839BD3500BD3700B62991BDFFB5F1
S1133760B62992BDFFB5B62993BDFFB5B62994BD60
S1133770FFB5867CBDFFB839BD3562BD3700B629BB
S113378091BDFFB5B62992BDFFB5B62993BDFFB56E
S1133790B62994BDFFB5867CBDFFB839BD35C4BD1F
S11337A03700B62991BDFFB5B62992BDFFB5B6293C
S10E37B093BDFFB5B62994BDFFB539E9
S9030000FC
