S0030000FC
S1132400CE0008F620028620BA1009B71009592513
S113241002240A86EFB41009B71009200A8610BAFC
S11324201009B71009200086DFB41009B710090994
S113243026D439CE000886EFB41009B710098620D7
S1132440BA1009B7100986DFB41009B710090926B4
S1132450B53986DFB41009B7100986EFB41009B78F
S10E246010098610BA1009B7100939E2
S11330008600B72007BD245286D0B72002BD240015
S1133010BD303E861BB72002BD2400BD303EBD241A
S1133020528600B72007BD245286D1B72002BD24A2
S113303000BD303EBD2433BD303EBD30613F8620EF
S1133040BA1009B7100986EFB41009B710090101C5
S113305086DFB41009B710098620BA1009B7100921
S1133060398620BA1009B710098610BA1009B710AA
S11330700986DFB41009B7100901010186EFB41005
S109308009B71009393FF5
S9030000FC
