S0030000FC
S1132400CE0008F620028620BA1009B71009592513
S113241002240A86EFB41009B71009200A8610BAFC
S11324201009B71009200086DFB41009B710090994
S113243026D439CE000886EFB41009B710098620D7
S1132440BA1009B7100986DFB41009B71009BD34F2
S1132450AA0926EA3986DFB41009B7100986EFB451
S11124601009B710098610BA1009B71009390F
S11330008600B720008600B72007BD245586D0B7B8
S11330102002BD2400BD3462B62008B72002BD24BE
S113302000BD3462BD245586D1B72002BD2400BD45
S10F30303462BD2433BD3462BD348539E4
S11334008600970F861BB72008CE2200FF39FEBD29
S11334103000FE39FEB62000A700BDFFBB8620BDEC
S1133420FFB808FF39FEB620084CB72008960F4CA9
S1133430970F800826D9BDFFC4BD3500BD3578B6C9
S11334402991BDFFB5B62992BDFFB5862EBDFFB843
S1133450B62993BDFFB5B62994BDFFB5BDFFC42001
S11334609F3F8620BA1009B7100986EFB41009B738
S11334701009010186DFB41009B710098620BA10BB
S113348009B71009398620BA1009B710098610BA8D
S11334901009B7100986DFB41009B710090101013A
S11334A086EFB41009B71009393FB6100818CE00DA
S11134B00544180926FBB6200049B720003950
S1133500FC220088FFC8FFC30001CE011802FD237E
S1133510028FFD2600CC0052B32600FD2240FC237E
S113352002CE0118038FFD2602CC000EB32602FD45
S11335302242492502242046F62242860088FF8B37
S113354001CE000A028FFD2600B62241C6643DB3B7
S11335502600FD2260202046F62242860088FF8B4A
S113356001CE000A028FFD2600B62241C6643DF357
S11335702600FD2260200039FC2260CE2710028F35
S1133580F729908FCE03E8028FF729918FCE00643C
S1133590028FF729928FCE000A028FF729938FF7B3
S10635A02994392E
S9030000FC
