S0030000FC
S1132400CE0008F620028620BA1009B71009592513
S113241002240A86EFB41009B71009200A8610BAFC
S11324201009B71009200086DFB41009B710090994
S113243026D439CE000886EFB41009B710098620D7
S1132440BA1009B7100986DFB41009B71009BD34F2
S1132450770926EA3986DFB41009B7100986EFB484
S11124601009B710098610BA1009B71009390F
S11330008600B720008600B72007BD245586D0B7B8
S11330102002BD2400BD342FB62008B72002BD24F1
S113302000BD342FBD24558600B72007BD24558626
S1133030D1B72002BD2400BD342FBD2433BD342FAD
S1073040BD3452390C
S11334008600970F861BB72008CE2200FF39FEBD29
S11334103000FE39FEB62000A70008FF39FEB620B2
S1133420084CB72008960F4C970F800826E13F867A
S113343020BA1009B7100986EFB41009B7100901B2
S11334400186DFB41009B710098620BA1009B71035
S113345009398620BA1009B710098610BA1009B7BD
S1133460100986DFB41009B7100901010186EFB411
S11334701009B71009393FB6100818CE00054418D2
S10E34800926FBB6200049B7200039E4
S1133500FC201088FFC8FFC30001CE011802FD2271
S1123510028FFD2600CC0052B32600FD22003F9F
S9030000FC
