S0030000FC
S1132400CE0008F620028620BA1009B71009592513
S113241002240A86EFB41009B71009200A8610BAFC
S11324201009B71009200086DFB41009B710090994
S113243026D439CE000886EFB41009B710098620D7
S1132440BA1009B7100986DFB41009B71009BD34F2
S1132450840926EA3986DFB41009B7100986EFB477
S11124601009B710098610BA1009B71009390F
S11330008600B720008600B72007BD245586D0B7B8
S11330102002BD2400BD343CB62008B72002BD24E4
S113302000BD343CBD245586D1B72002BD2400BD6B
S10F3030343CBD2433BD343CBD345F3956
S11334008600970F861BB72008CE2200FF39FEBD29
S11334103000FE39FEB62000A700BDFFBB8620BDEC
S1133420FFB808FF39FEB620084CB72008960F4CA9
S1133430970F800826D9BDFFC420C53F8620BA1047
S113344009B7100986EFB41009B71009010186DF26
S1133450B41009B710098620BA1009B710093986C3
S113346020BA1009B710098610BA1009B7100986D6
S1133470DFB41009B7100901010186EFB41009B7D0
S11334801009393FB6100818CE000544180926FB68
S10B3490B6200049B720003901
S1133500FC201088FFC8FFC30001CE011802FD2370
S1123510028FFD2600CC0052B32600FD22003F9F
S9030000FC
