S0030000FC
S1132400CE0008F620028620BA1009B71009592513
S113241002240A86EFB41009B71009200A8610BAFC
S11324201009B71009200086DFB41009B710090994
S113243026D439CE000886EFB41009B710098620D7
S1132440BA1009B7100986DFB41009B71009BD30F6
S11324508B0926EA3986DFB41009B7100986EFB470
S11124601009B710098610BA1009B71009390F
S11330008600B720008600B72007BD245586D0B7B8
S11330102002BD2400BD30438600B72002BD240039
S1133020BD3043BD24558600B72007BD245586D145
S1133030B72002BD2400BD3043BD2433BD3043BDA1
S113304030663F8620BA1009B7100986EFB410091C
S1133050B71009010186DFB41009B710098620BA38
S11330601009B71009398620BA1009B7100986105B
S1133070BA1009B7100986DFB41009B710090101A5
S11330800186EFB41009B71009393FB6100818CEFD
S1123090000544180926FBB6200049B720003973
S9030000FC
