S0030000FC
S113140054454D507C4759524F5F587C4759524F71
S10D14105F597C4759524F5F5A049C
S1132400CE0008F620028620BA1009B71009592513
S113241002240A86EFB41009B71009200A8610BAFC
S11324201009B71009200086DFB41009B710090994
S113243026D439CE000886EFB41009B710098620D7
S1132440BA1009B7100986DFB41009B71009BD34F2
S11324509C0926EA3986DFB41009B7100986EFB45F
S11124601009B710098610BA1009B71009390F
S11330008600B72000BD245586D0B72002BD240019
S1133010BD3454B62008B72002BD2400BD3454BDCD
S1133020245586D1B72002BD2400BD3454BD2433B9
S10A3030BD3454BD347739AF
S11334008600970F861BB72008CE2200FF39FEBD29
S11334103000FE39FEB62000A700BDFFBB8620BDEC
S1133420FFB808FF39FEB620084CB72008960F4CA9
S1133430970F800826D9CE1400BDFFC7BDFFC4BDB9
S1133440372BBD3754BD3795BD37D6BDFFC4BDFF3F
S1133450C420AD3F8620BA1009B7100986EFB41016
S113346009B71009010186DFB41009B710098620D5
S1133470BA1009B71009398620BA1009B71009869D
S113348010BA1009B7100986DFB41009B710090182
S1133490010186EFB41009B71009393FB6100818B6
S11334A0CE000544180926FBB6200049B720003990
S11335008600B72292B62204F62206492502243008
S113351046FD26008601B72292FC260088FFC8FFDC
S1133520C30001CE000E02FD23028FFD260083009E
S1133530142B022A06CC0014B32600FD22402017C7
S113354046CE000E02FD23028FFD2600CC0014F3AC
S11335502600FD22402000FC2302CE0014038FFD30
S11335602602CC000EB32602FD2242FC2240FD229C
S113357060398600B72292B62208F6220A4925024B
S1133580243046FD26008601B72292FC260088FFDF
S1133590C8FFC30001CE000E02FD23028FFD2600EA
S11335A08300142B022A06CC0014B32600FD22400B
S11335B0201746CE000E02FD23028FFD2600CC000C
S11335C014F32600FD22402000FC2302CE00140345
S11335D08FFD2602CC000EB32602FD2242FC2240BF
S11335E0FD2260398600B72292B6220CF6220E49DB
S11335F0259024BE46FD26008601B72292FC2600B3
S113360088FFC8FFC30001CE000E02FD23028FFD18
S113361026008300142B022A06CC0014B32600FDD6
S11336202240201746CE000E02FD23028FFD260005
S1133630CC0014F32600FD22402000FC2302CE001F
S113364014038FFD2602CC000EB32602FD2242FC99
S11336502240FD226039B62200F6220288FFC8FF0C
S1133660C30001CE011802FD23028FFD2600CC0009
S113367052B32600FD2240FC2302CE0118038FFD25
S11336802602CC000EB32602FD2242492502242044
S113369046F62242860088FF8B01CE000A028FFD87
S11336A02600B62241C6643DB32600FD22602020D8
S11336B046F62242860088FF8B01CE000A028FFD67
S11336C02600B62241C6643DF32600FD2260200098
S10436D039BC
S1133700FC2260CE2710028FF729908FCE03E802A7
S11337108FF729918FCE0064028FF729928FCE0004
S11337200A028FF729938FF7299439BD3656BD378E
S113373000B62991BDFFB5B62992BDFFB5862EBD51
S1133740FFB8B62993BDFFB5B62994BDFFB5867CF5
S1133750BDFFB839BD3500BD3700B62292810127BF
S1133760022607862DBDFFB82007862BBDFFB82093
S113377000B62990BDFFB5B62991BDFFB5B6299213
S1133780BDFFB5B62993BDFFB5B62994BDFFB58677
S11337907CBDFFB839BD3572BD3700B622928101B8
S11337A027022607862DBDFFB82007862BBDFFB84C
S11337B02000B62990BDFFB5B62991BDFFB5B62945
S11337C092BDFFB5B62993BDFFB5B62994BDFFB52B
S11337D0867CBDFFB839BD35E4BD3700B622928181
S11337E00127022607862DBDFFB82007862BBDFFC3
S11337F0B82000B62990BDFFB5B62991BDFFB5B676
S11338002992BDFFB5B62993BDFFB5B62994BDFF76
S1053810B539C4
S9030000FC
